{
  "_format": "hh-sol-artifact-1",
  "contractName": "MarketplaceNFT",
  "sourceName": "contracts/MarketplaceNFT.sol",
  "abi": [
    {
      "anonymous": false,
      "inputs": [
        {
          "indexed": false,
          "internalType": "address",
          "name": "previousAdmin",
          "type": "address"
        },
        {
          "indexed": false,
          "internalType": "address",
          "name": "newAdmin",
          "type": "address"
        }
      ],
      "name": "AdminChanged",
      "type": "event"
    },
    {
      "anonymous": false,
      "inputs": [
        {
          "indexed": true,
          "internalType": "address",
          "name": "owner",
          "type": "address"
        },
        {
          "indexed": true,
          "internalType": "address",
          "name": "approved",
          "type": "address"
        },
        {
          "indexed": true,
          "internalType": "uint256",
          "name": "tokenId",
          "type": "uint256"
        }
      ],
      "name": "Approval",
      "type": "event"
    },
    {
      "anonymous": false,
      "inputs": [
        {
          "indexed": true,
          "internalType": "address",
          "name": "owner",
          "type": "address"
        },
        {
          "indexed": true,
          "internalType": "address",
          "name": "operator",
          "type": "address"
        },
        {
          "indexed": false,
          "internalType": "bool",
          "name": "approved",
          "type": "bool"
        }
      ],
      "name": "ApprovalForAll",
      "type": "event"
    },
    {
      "anonymous": false,
      "inputs": [
        {
          "indexed": true,
          "internalType": "address",
          "name": "beacon",
          "type": "address"
        }
      ],
      "name": "BeaconUpgraded",
      "type": "event"
    },
    {
      "anonymous": false,
      "inputs": [
        {
          "indexed": false,
          "internalType": "uint256",
          "name": "_ownerCutPerMillionNFT",
          "type": "uint256"
        }
      ],
      "name": "ChangedOwnerCutPerMillionNFT",
      "type": "event"
    },
    {
      "anonymous": false,
      "inputs": [
        {
          "indexed": false,
          "internalType": "uint256",
          "name": "_publicationFeeInWeiNFT",
          "type": "uint256"
        }
      ],
      "name": "ChangedPublicationFeeNFT",
      "type": "event"
    },
    {
      "anonymous": false,
      "inputs": [
        {
          "indexed": false,
          "internalType": "uint8",
          "name": "version",
          "type": "uint8"
        }
      ],
      "name": "Initialized",
      "type": "event"
    },
    {
      "anonymous": false,
      "inputs": [],
      "name": "MarketplaceNFTPaused",
      "type": "event"
    },
    {
      "anonymous": false,
      "inputs": [],
      "name": "MarketplaceNFTUnpaused",
      "type": "event"
    },
    {
      "anonymous": false,
      "inputs": [
        {
          "indexed": false,
          "internalType": "bytes32",
          "name": "_orderIdNFT",
          "type": "bytes32"
        },
        {
          "indexed": true,
          "internalType": "address",
          "name": "owner",
          "type": "address"
        },
        {
          "indexed": false,
          "internalType": "uint256",
          "name": "_tokenId",
          "type": "uint256"
        },
        {
          "indexed": true,
          "internalType": "address",
          "name": "_nftContract",
          "type": "address"
        },
        {
          "indexed": false,
          "internalType": "uint256",
          "name": "_nakaAmount",
          "type": "uint256"
        }
      ],
      "name": "NFTListing",
      "type": "event"
    },
    {
      "anonymous": false,
      "inputs": [
        {
          "indexed": false,
          "internalType": "bytes32",
          "name": "_orderIdNFT",
          "type": "bytes32"
        },
        {
          "indexed": true,
          "internalType": "address",
          "name": "seller",
          "type": "address"
        },
        {
          "indexed": true,
          "internalType": "address",
          "name": "buyer",
          "type": "address"
        },
        {
          "indexed": false,
          "internalType": "uint256",
          "name": "_tokenId",
          "type": "uint256"
        },
        {
          "indexed": true,
          "internalType": "address",
          "name": "_nftContract",
          "type": "address"
        },
        {
          "indexed": false,
          "internalType": "uint256",
          "name": "_nakaAmount",
          "type": "uint256"
        }
      ],
      "name": "NFTSold",
      "type": "event"
    },
    {
      "anonymous": false,
      "inputs": [
        {
          "indexed": false,
          "internalType": "bytes32",
          "name": "_orderIdNFT",
          "type": "bytes32"
        },
        {
          "indexed": true,
          "internalType": "address",
          "name": "owner",
          "type": "address"
        },
        {
          "indexed": false,
          "internalType": "uint256",
          "name": "_tokenId",
          "type": "uint256"
        },
        {
          "indexed": true,
          "internalType": "address",
          "name": "_nftContract",
          "type": "address"
        },
        {
          "indexed": false,
          "internalType": "uint256",
          "name": "_nakaAmount",
          "type": "uint256"
        }
      ],
      "name": "NFTUnlisting",
      "type": "event"
    },
    {
      "anonymous": false,
      "inputs": [
        {
          "indexed": false,
          "internalType": "bytes32",
          "name": "_orderIdNFT",
          "type": "bytes32"
        },
        {
          "indexed": true,
          "internalType": "address",
          "name": "seller",
          "type": "address"
        },
        {
          "indexed": false,
          "internalType": "uint256",
          "name": "tokenIdNFT",
          "type": "uint256"
        },
        {
          "indexed": true,
          "internalType": "address",
          "name": "nftContract",
          "type": "address"
        },
        {
          "indexed": false,
          "internalType": "uint256",
          "name": "price",
          "type": "uint256"
        }
      ],
      "name": "OrderNFTDetail",
      "type": "event"
    },
    {
      "anonymous": false,
      "inputs": [
        {
          "indexed": true,
          "internalType": "address",
          "name": "previousOwner",
          "type": "address"
        },
        {
          "indexed": true,
          "internalType": "address",
          "name": "newOwner",
          "type": "address"
        }
      ],
      "name": "OwnershipTransferred",
      "type": "event"
    },
    {
      "anonymous": false,
      "inputs": [
        {
          "indexed": false,
          "internalType": "address",
          "name": "account",
          "type": "address"
        }
      ],
      "name": "Paused",
      "type": "event"
    },
    {
      "anonymous": false,
      "inputs": [
        {
          "indexed": true,
          "internalType": "address",
          "name": "from",
          "type": "address"
        },
        {
          "indexed": true,
          "internalType": "address",
          "name": "to",
          "type": "address"
        },
        {
          "indexed": true,
          "internalType": "uint256",
          "name": "tokenId",
          "type": "uint256"
        }
      ],
      "name": "Transfer",
      "type": "event"
    },
    {
      "anonymous": false,
      "inputs": [
        {
          "indexed": false,
          "internalType": "address",
          "name": "account",
          "type": "address"
        }
      ],
      "name": "Unpaused",
      "type": "event"
    },
    {
      "anonymous": false,
      "inputs": [
        {
          "indexed": true,
          "internalType": "address",
          "name": "implementation",
          "type": "address"
        }
      ],
      "name": "Upgraded",
      "type": "event"
    },
    {
      "inputs": [],
      "name": "admin",
      "outputs": [
        {
          "internalType": "address",
          "name": "",
          "type": "address"
        }
      ],
      "stateMutability": "view",
      "type": "function"
    },
    {
      "inputs": [
        {
          "internalType": "address",
          "name": "to",
          "type": "address"
        },
        {
          "internalType": "uint256",
          "name": "tokenId",
          "type": "uint256"
        }
      ],
      "name": "approve",
      "outputs": [],
      "stateMutability": "nonpayable",
      "type": "function"
    },
    {
      "inputs": [
        {
          "internalType": "address",
          "name": "owner",
          "type": "address"
        }
      ],
      "name": "balanceOf",
      "outputs": [
        {
          "internalType": "uint256",
          "name": "",
          "type": "uint256"
        }
      ],
      "stateMutability": "view",
      "type": "function"
    },
    {
      "inputs": [
        {
          "internalType": "address",
          "name": "_sellerAccount",
          "type": "address"
        },
        {
          "internalType": "bytes32",
          "name": "_orderIdNFT",
          "type": "bytes32"
        }
      ],
      "name": "executeListedNFT",
      "outputs": [],
      "stateMutability": "nonpayable",
      "type": "function"
    },
    {
      "inputs": [
        {
          "internalType": "uint256",
          "name": "tokenId",
          "type": "uint256"
        }
      ],
      "name": "getApproved",
      "outputs": [
        {
          "internalType": "address",
          "name": "",
          "type": "address"
        }
      ],
      "stateMutability": "view",
      "type": "function"
    },
    {
      "inputs": [
        {
          "internalType": "address",
          "name": "_sellerAccount",
          "type": "address"
        },
        {
          "internalType": "bytes32",
          "name": "_orderIdNFT",
          "type": "bytes32"
        }
      ],
      "name": "getListedNFTInfo",
      "outputs": [
        {
          "components": [
            {
              "internalType": "bytes32",
              "name": "orderIdNFT",
              "type": "bytes32"
            },
            {
              "internalType": "address",
              "name": "seller",
              "type": "address"
            },
            {
              "internalType": "uint256",
              "name": "tokenIdNFT",
              "type": "uint256"
            },
            {
              "internalType": "address",
              "name": "nftContract",
              "type": "address"
            },
            {
              "internalType": "uint256",
              "name": "price",
              "type": "uint256"
            }
          ],
          "internalType": "struct MarketplaceNFT.OrderNFT",
          "name": "",
          "type": "tuple"
        }
      ],
      "stateMutability": "view",
      "type": "function"
    },
    {
      "inputs": [],
      "name": "getOwnerCutPerMillionNFT",
      "outputs": [
        {
          "internalType": "uint256",
          "name": "",
          "type": "uint256"
        }
      ],
      "stateMutability": "view",
      "type": "function"
    },
    {
      "inputs": [
        {
          "internalType": "address",
          "name": "_owner",
          "type": "address"
        }
      ],
      "name": "getOwnerListingNFTs",
      "outputs": [
        {
          "internalType": "uint256[]",
          "name": "nfts",
          "type": "uint256[]"
        }
      ],
      "stateMutability": "view",
      "type": "function"
    },
    {
      "inputs": [],
      "name": "getPublicationFeeNFT",
      "outputs": [
        {
          "internalType": "uint256",
          "name": "",
          "type": "uint256"
        }
      ],
      "stateMutability": "view",
      "type": "function"
    },
    {
      "inputs": [
        {
          "internalType": "address",
          "name": "_admin",
          "type": "address"
        },
        {
          "internalType": "address",
          "name": "_tokenAddress",
          "type": "address"
        },
        {
          "internalType": "uint256",
          "name": "_publicationFeeNFT",
          "type": "uint256"
        },
        {
          "internalType": "uint256",
          "name": "_ownerCutPerMillionNFT",
          "type": "uint256"
        }
      ],
      "name": "initialize",
      "outputs": [],
      "stateMutability": "nonpayable",
      "type": "function"
    },
    {
      "inputs": [
        {
          "internalType": "address",
          "name": "owner",
          "type": "address"
        },
        {
          "internalType": "address",
          "name": "operator",
          "type": "address"
        }
      ],
      "name": "isApprovedForAll",
      "outputs": [
        {
          "internalType": "bool",
          "name": "",
          "type": "bool"
        }
      ],
      "stateMutability": "view",
      "type": "function"
    },
    {
      "inputs": [
        {
          "internalType": "address",
          "name": "_nftContract",
          "type": "address"
        },
        {
          "internalType": "uint256",
          "name": "_tokenId",
          "type": "uint256"
        },
        {
          "internalType": "uint256",
          "name": "_nakaAmount",
          "type": "uint256"
        }
      ],
      "name": "listNFT",
      "outputs": [],
      "stateMutability": "nonpayable",
      "type": "function"
    },
    {
      "inputs": [],
      "name": "name",
      "outputs": [
        {
          "internalType": "string",
          "name": "",
          "type": "string"
        }
      ],
      "stateMutability": "view",
      "type": "function"
    },
    {
      "inputs": [
        {
          "internalType": "address",
          "name": "",
          "type": "address"
        },
        {
          "internalType": "address",
          "name": "",
          "type": "address"
        },
        {
          "internalType": "uint256",
          "name": "",
          "type": "uint256"
        },
        {
          "internalType": "bytes",
          "name": "",
          "type": "bytes"
        }
      ],
      "name": "onERC721Received",
      "outputs": [
        {
          "internalType": "bytes4",
          "name": "",
          "type": "bytes4"
        }
      ],
      "stateMutability": "nonpayable",
      "type": "function"
    },
    {
      "inputs": [
        {
          "internalType": "address",
          "name": "",
          "type": "address"
        },
        {
          "internalType": "bytes32",
          "name": "",
          "type": "bytes32"
        }
      ],
      "name": "orderByOrderIdNFT",
      "outputs": [
        {
          "internalType": "bytes32",
          "name": "orderIdNFT",
          "type": "bytes32"
        },
        {
          "internalType": "address",
          "name": "seller",
          "type": "address"
        },
        {
          "internalType": "uint256",
          "name": "tokenIdNFT",
          "type": "uint256"
        },
        {
          "internalType": "address",
          "name": "nftContract",
          "type": "address"
        },
        {
          "internalType": "uint256",
          "name": "price",
          "type": "uint256"
        }
      ],
      "stateMutability": "view",
      "type": "function"
    },
    {
      "inputs": [
        {
          "internalType": "address",
          "name": "",
          "type": "address"
        },
        {
          "internalType": "uint256",
          "name": "",
          "type": "uint256"
        }
      ],
      "name": "orderIdByNFT",
      "outputs": [
        {
          "internalType": "bytes32",
          "name": "orderIdNFT",
          "type": "bytes32"
        },
        {
          "internalType": "address",
          "name": "seller",
          "type": "address"
        },
        {
          "internalType": "uint256",
          "name": "price",
          "type": "uint256"
        }
      ],
      "stateMutability": "view",
      "type": "function"
    },
    {
      "inputs": [],
      "name": "owner",
      "outputs": [
        {
          "internalType": "address",
          "name": "",
          "type": "address"
        }
      ],
      "stateMutability": "view",
      "type": "function"
    },
    {
      "inputs": [],
      "name": "ownerCutPerMillionNFT",
      "outputs": [
        {
          "internalType": "uint256",
          "name": "",
          "type": "uint256"
        }
      ],
      "stateMutability": "view",
      "type": "function"
    },
    {
      "inputs": [
        {
          "internalType": "uint256",
          "name": "tokenId",
          "type": "uint256"
        }
      ],
      "name": "ownerOf",
      "outputs": [
        {
          "internalType": "address",
          "name": "",
          "type": "address"
        }
      ],
      "stateMutability": "view",
      "type": "function"
    },
    {
      "inputs": [
        {
          "internalType": "address",
          "name": "",
          "type": "address"
        },
        {
          "internalType": "uint256",
          "name": "",
          "type": "uint256"
        }
      ],
      "name": "ownerToListedItemIds",
      "outputs": [
        {
          "internalType": "uint256",
          "name": "",
          "type": "uint256"
        }
      ],
      "stateMutability": "view",
      "type": "function"
    },
    {
      "inputs": [],
      "name": "pauseMarketplaceNFT",
      "outputs": [],
      "stateMutability": "nonpayable",
      "type": "function"
    },
    {
      "inputs": [],
      "name": "paused",
      "outputs": [
        {
          "internalType": "bool",
          "name": "",
          "type": "bool"
        }
      ],
      "stateMutability": "view",
      "type": "function"
    },
    {
      "inputs": [],
      "name": "proxiableUUID",
      "outputs": [
        {
          "internalType": "bytes32",
          "name": "",
          "type": "bytes32"
        }
      ],
      "stateMutability": "view",
      "type": "function"
    },
    {
      "inputs": [],
      "name": "publicationFeeInWeiNFT",
      "outputs": [
        {
          "internalType": "uint256",
          "name": "",
          "type": "uint256"
        }
      ],
      "stateMutability": "view",
      "type": "function"
    },
    {
      "inputs": [],
      "name": "renounceOwnership",
      "outputs": [],
      "stateMutability": "nonpayable",
      "type": "function"
    },
    {
      "inputs": [
        {
          "internalType": "address",
          "name": "from",
          "type": "address"
        },
        {
          "internalType": "address",
          "name": "to",
          "type": "address"
        },
        {
          "internalType": "uint256",
          "name": "tokenId",
          "type": "uint256"
        }
      ],
      "name": "safeTransferFrom",
      "outputs": [],
      "stateMutability": "nonpayable",
      "type": "function"
    },
    {
      "inputs": [
        {
          "internalType": "address",
          "name": "from",
          "type": "address"
        },
        {
          "internalType": "address",
          "name": "to",
          "type": "address"
        },
        {
          "internalType": "uint256",
          "name": "tokenId",
          "type": "uint256"
        },
        {
          "internalType": "bytes",
          "name": "_data",
          "type": "bytes"
        }
      ],
      "name": "safeTransferFrom",
      "outputs": [],
      "stateMutability": "nonpayable",
      "type": "function"
    },
    {
      "inputs": [
        {
          "internalType": "address",
          "name": "operator",
          "type": "address"
        },
        {
          "internalType": "bool",
          "name": "approved",
          "type": "bool"
        }
      ],
      "name": "setApprovalForAll",
      "outputs": [],
      "stateMutability": "nonpayable",
      "type": "function"
    },
    {
      "inputs": [
        {
          "internalType": "uint256",
          "name": "_ownerCutPerMillionNFT",
          "type": "uint256"
        }
      ],
      "name": "setOwnerCutPerMillionNFT",
      "outputs": [],
      "stateMutability": "nonpayable",
      "type": "function"
    },
    {
      "inputs": [
        {
          "internalType": "uint256",
          "name": "_publicationFeeNFT",
          "type": "uint256"
        }
      ],
      "name": "setPublicationFeeNFT",
      "outputs": [],
      "stateMutability": "nonpayable",
      "type": "function"
    },
    {
      "inputs": [
        {
          "internalType": "bytes4",
          "name": "interfaceId",
          "type": "bytes4"
        }
      ],
      "name": "supportsInterface",
      "outputs": [
        {
          "internalType": "bool",
          "name": "",
          "type": "bool"
        }
      ],
      "stateMutability": "view",
      "type": "function"
    },
    {
      "inputs": [],
      "name": "symbol",
      "outputs": [
        {
          "internalType": "string",
          "name": "",
          "type": "string"
        }
      ],
      "stateMutability": "view",
      "type": "function"
    },
    {
      "inputs": [],
      "name": "tokenAddress",
      "outputs": [
        {
          "internalType": "address",
          "name": "",
          "type": "address"
        }
      ],
      "stateMutability": "view",
      "type": "function"
    },
    {
      "inputs": [
        {
          "internalType": "uint256",
          "name": "tokenId",
          "type": "uint256"
        }
      ],
      "name": "tokenURI",
      "outputs": [
        {
          "internalType": "string",
          "name": "",
          "type": "string"
        }
      ],
      "stateMutability": "view",
      "type": "function"
    },
    {
      "inputs": [
        {
          "internalType": "address",
          "name": "from",
          "type": "address"
        },
        {
          "internalType": "address",
          "name": "to",
          "type": "address"
        },
        {
          "internalType": "uint256",
          "name": "tokenId",
          "type": "uint256"
        }
      ],
      "name": "transferFrom",
      "outputs": [],
      "stateMutability": "nonpayable",
      "type": "function"
    },
    {
      "inputs": [
        {
          "internalType": "address",
          "name": "newOwner",
          "type": "address"
        }
      ],
      "name": "transferOwnership",
      "outputs": [],
      "stateMutability": "nonpayable",
      "type": "function"
    },
    {
      "inputs": [
        {
          "internalType": "address",
          "name": "_sellerAccount",
          "type": "address"
        },
        {
          "internalType": "bytes32",
          "name": "_orderIdNFT",
          "type": "bytes32"
        }
      ],
      "name": "unlistNFT",
      "outputs": [],
      "stateMutability": "nonpayable",
      "type": "function"
    },
    {
      "inputs": [],
      "name": "unpauseMarketplaceNFT",
      "outputs": [],
      "stateMutability": "nonpayable",
      "type": "function"
    },
    {
      "inputs": [
        {
          "internalType": "address",
          "name": "newImplementation",
          "type": "address"
        }
      ],
      "name": "upgradeTo",
      "outputs": [],
      "stateMutability": "nonpayable",
      "type": "function"
    },
    {
      "inputs": [
        {
          "internalType": "address",
          "name": "newImplementation",
          "type": "address"
        },
        {
          "internalType": "bytes",
          "name": "data",
          "type": "bytes"
        }
      ],
      "name": "upgradeToAndCall",
      "outputs": [],
      "stateMutability": "payable",
      "type": "function"
    }
  ],
  "bytecode": "0x60a06040523060601b60805234801561001757600080fd5b5060805160601c61398561005260003960008181610cca01528181610d0a015281816110df0152818161111f01526111b201526139856000f3fe60806040526004361061023b5760003560e01c80638da5cb5b1161012e578063c9ffe9f4116100ab578063e985e9c51161006f578063e985e9c514610756578063eb990c5914610776578063f2fde38b14610796578063f851a440146107b6578063fbba77c8146107d757600080fd5b8063c9ffe9f414610676578063d3a93bb4146106ea578063d548af841461070a578063e21ff9951461071f578063e6e2a3bd1461073657600080fd5b8063ae15f431116100f2578063ae15f43114610578578063b88d4fde1461058d578063bf1d0f3c146105ad578063c54628c6146105c3578063c87b56dd1461065657600080fd5b80638da5cb5b146104e457806395d89b41146105025780639d76ea5814610517578063a22cb46514610538578063ad05f1b41461055857600080fd5b80633b2fed45116101bc5780635c975abb116101805780635c975abb1461045f5780636352211e1461047857806370a0823114610498578063715018a6146104b85780637514c826146104cd57600080fd5b80633b2fed45146103d75780633f743153146103f757806342842e0e146104175780634f1ef2861461043757806352d1902d1461044a57600080fd5b8063150b7a0211610203578063150b7a0214610311578063187346f91461034a57806323b872dd146103775780632fc996dc146103975780633659cfe6146103b757600080fd5b806301ffc9a71461024057806306fdde0314610275578063081812fc14610297578063095ea7b3146102cf578063122c6092146102f1575b600080fd5b34801561024c57600080fd5b5061026061025b366004613356565b610845565b60405190151581526020015b60405180910390f35b34801561028157600080fd5b5061028a610897565b60405161026c91906134c5565b3480156102a357600080fd5b506102b76102b2366004613390565b61092a565b6040516001600160a01b03909116815260200161026c565b3480156102db57600080fd5b506102ef6102ea36600461326f565b6109c6565b005b3480156102fd57600080fd5b506102ef61030c366004613390565b610adc565b34801561031d57600080fd5b5061033161032c36600461318f565b610b43565b6040516001600160e01b0319909116815260200161026c565b34801561035657600080fd5b5061036a6103653660046130db565b610b54565b60405161026c9190613481565b34801561038357600080fd5b506102ef61039236600461314e565b610c8e565b3480156103a357600080fd5b506101fb545b60405190815260200161026c565b3480156103c357600080fd5b506102ef6103d23660046130db565b610cbf565b3480156103e357600080fd5b506102ef6103f236600461326f565b610d9f565b34801561040357600080fd5b506103a961041236600461326f565b611087565b34801561042357600080fd5b506102ef61043236600461314e565b6110b9565b6102ef61044536600461329b565b6110d4565b34801561045657600080fd5b506103a96111a5565b34801561046b57600080fd5b506101915460ff16610260565b34801561048457600080fd5b506102b7610493366004613390565b611258565b3480156104a457600080fd5b506103a96104b33660046130db565b6112d0565b3480156104c457600080fd5b506102ef611358565b3480156104d957600080fd5b506103a96101fb5481565b3480156104f057600080fd5b506097546001600160a01b03166102b7565b34801561050e57600080fd5b5061028a61138e565b34801561052357600080fd5b506101f6546102b7906001600160a01b031681565b34801561054457600080fd5b506102ef610553366004613241565b61139e565b34801561056457600080fd5b506102ef6105733660046132eb565b6113a9565b34801561058457600080fd5b506102ef611790565b34801561059957600080fd5b506102ef6105a836600461318f565b611860565b3480156105b957600080fd5b506101fa546103a9565b3480156105cf57600080fd5b506106246105de36600461326f565b6101f76020908152600092835260408084209091529082529020805460018201546002830154600384015460049094015492936001600160a01b03928316939192169085565b604080519586526001600160a01b0394851660208701528501929092529091166060830152608082015260a00161026c565b34801561066257600080fd5b5061028a610671366004613390565b611898565b34801561068257600080fd5b506106c761069136600461326f565b6101f860209081526000928352604080842090915290825290208054600182015460029092015490916001600160a01b03169083565b604080519384526001600160a01b0390921660208401529082015260600161026c565b3480156106f657600080fd5b506102ef610705366004613390565b611981565b34801561071657600080fd5b506102ef611a49565b34801561072b57600080fd5b506103a96101fa5481565b34801561074257600080fd5b506102ef61075136600461326f565b611add565b34801561076257600080fd5b50610260610771366004613115565b611e64565b34801561078257600080fd5b506102ef6107913660046131fb565b611e93565b3480156107a257600080fd5b506102ef6107b13660046130db565b611f4a565b3480156107c257600080fd5b506101f5546102b7906001600160a01b031681565b3480156107e357600080fd5b506107f76107f236600461326f565b611fe2565b60405161026c9190815181526020808301516001600160a01b039081169183019190915260408084015190830152606080840151909116908201526080918201519181019190915260a00190565b60006001600160e01b031982166380ac58cd60e01b148061087657506001600160e01b03198216635b5e139f60e01b145b8061089157506301ffc9a760e01b6001600160e01b03198316145b92915050565b606061015f80546108a7906137f7565b80601f01602080910402602001604051908101604052809291908181526020018280546108d3906137f7565b80156109205780601f106108f557610100808354040283529160200191610920565b820191906000526020600020905b81548152906001019060200180831161090357829003601f168201915b5050505050905090565b600081815261016160205260408120546001600160a01b03166109a95760405162461bcd60e51b815260206004820152602c60248201527f4552433732313a20617070726f76656420717565727920666f72206e6f6e657860448201526b34b9ba32b73a103a37b5b2b760a11b60648201526084015b60405180910390fd5b50600090815261016360205260409020546001600160a01b031690565b60006109d182611258565b9050806001600160a01b0316836001600160a01b03161415610a3f5760405162461bcd60e51b815260206004820152602160248201527f4552433732313a20617070726f76616c20746f2063757272656e74206f776e656044820152603960f91b60648201526084016109a0565b336001600160a01b0382161480610a5b5750610a5b8133611e64565b610acd5760405162461bcd60e51b815260206004820152603860248201527f4552433732313a20617070726f76652063616c6c6572206973206e6f74206f7760448201527f6e6572206e6f7220617070726f76656420666f7220616c6c000000000000000060648201526084016109a0565b610ad783836120ae565b505050565b6097546001600160a01b03163314610b065760405162461bcd60e51b81526004016109a090613610565b6101fb8190556040518181527f6b0dc31183687f5090909d2ba7c6ad776a06ece574fd6703384fe78ff83164a5906020015b60405180910390a150565b630a85bd0160e11b5b949350505050565b6001600160a01b03811660009081526101f960209081526040808320805482518185028101850190935280835260609493830182828015610bb457602002820191906000526020600020905b815481526020019060010190808311610ba0575b5050506001600160a01b03861660009081526101f96020526040902054929350505067ffffffffffffffff811115610bee57610bee6138b9565b604051908082528060200260200182016040528015610c17578160200160208202803683370190505b50915060005b6001600160a01b03841660009081526101f96020526040902054811015610c8757818181518110610c5057610c506138a3565b6020026020010151838281518110610c6a57610c6a6138a3565b602090810291909101015280610c7f81613832565b915050610c1d565b5050919050565b610c98338261211d565b610cb45760405162461bcd60e51b81526004016109a090613696565b610ad78383836121f4565b306001600160a01b037f0000000000000000000000000000000000000000000000000000000000000000161415610d085760405162461bcd60e51b81526004016109a09061352a565b7f00000000000000000000000000000000000000000000000000000000000000006001600160a01b0316610d51600080516020613909833981519152546001600160a01b031690565b6001600160a01b031614610d775760405162461bcd60e51b81526004016109a090613576565b610d808161239e565b60408051600080825260208201909252610d9c918391906123c8565b50565b600260fb541415610dc25760405162461bcd60e51b81526004016109a090613732565b600260fb556101f654600160a01b900460ff1615610df25760405162461bcd60e51b81526004016109a090613645565b6001600160a01b0380831660009081526101f760209081526040808320858452825291829020825160a0810184528154808252600183015486169382019390935260028201549381019390935260038101549093166060830152600490920154608082015290610eb55760405162461bcd60e51b815260206004820152602860248201527f5b4d61726b6574706c6163654e46542e736f6c5d204173736574206e6f7420706044820152671d589b1a5cda195960c21b60648201526084016109a0565b60208101516001600160a01b03163314610f285760405162461bcd60e51b815260206004820152602e60248201527f5b4d61726b6574706c6163654e46542e736f6c5d2043616e277420756e6c697360448201526d3a1037ba3432b913b99037333a1760911b60648201526084016109a0565b80606001516001600160a01b03166342842e0e303384604001516040518463ffffffff1660e01b8152600401610f6093929190613420565b600060405180830381600087803b158015610f7a57600080fd5b505af1158015610f8e573d6000803e3d6000fd5b50505050610fa0816040015133612542565b6001600160a01b0383811660009081526101f7602090815260408083208684528252808320838155600180820180546001600160a01b0319908116909155600280840187905560038401805483169055600490930186905560608881018051891688526101f887528588208a870180518a529088528689208981559485018054909416909355929093019590955551868401519451608088015184518a8152958601919091528484015291519185169493909316927fced181de0660bb31c969bfd3b88c7233103861953b457fb556c5d5c7fed0c30b928290030190a35050600160fb5550565b6101f960205281600052604060002081815481106110a457600080fd5b90600052602060002001600091509150505481565b610ad783838360405180602001604052806000815250611860565b306001600160a01b037f000000000000000000000000000000000000000000000000000000000000000016141561111d5760405162461bcd60e51b81526004016109a09061352a565b7f00000000000000000000000000000000000000000000000000000000000000006001600160a01b0316611166600080516020613909833981519152546001600160a01b031690565b6001600160a01b03161461118c5760405162461bcd60e51b81526004016109a090613576565b6111958261239e565b6111a1828260016123c8565b5050565b6000306001600160a01b037f000000000000000000000000000000000000000000000000000000000000000016146112455760405162461bcd60e51b815260206004820152603860248201527f555550535570677261646561626c653a206d757374206e6f742062652063616c60448201527f6c6564207468726f7567682064656c656761746563616c6c000000000000000060648201526084016109a0565b5060008051602061390983398151915290565b600081815261016160205260408120546001600160a01b0316806108915760405162461bcd60e51b815260206004820152602960248201527f4552433732313a206f776e657220717565727920666f72206e6f6e657869737460448201526832b73a103a37b5b2b760b91b60648201526084016109a0565b60006001600160a01b03821661133b5760405162461bcd60e51b815260206004820152602a60248201527f4552433732313a2062616c616e636520717565727920666f7220746865207a65604482015269726f206164647265737360b01b60648201526084016109a0565b506001600160a01b03166000908152610162602052604090205490565b6097546001600160a01b031633146113825760405162461bcd60e51b81526004016109a090613610565b61138c600061261c565b565b606061016080546108a7906137f7565b6111a133838361266e565b600260fb5414156113cc5760405162461bcd60e51b81526004016109a090613732565b600260fb556101f654600160a01b900460ff16156113fc5760405162461bcd60e51b81526004016109a090613645565b6101f6546040516331a9108f60e11b8152600481018490526001600160a01b039182169160009190861690636352211e9060240160206040518083038186803b15801561144857600080fd5b505afa15801561145c573d6000803e3d6000fd5b505050506040513d601f19601f8201168201806040525081019061148091906130f8565b9050826114e55760405162461bcd60e51b815260206004820152602d60248201527f5b4d61726b6574706c6163654e46542e736f6c5d204e4654207072696365206360448201526c30b713ba103132903d32b9379760991b60648201526084016109a0565b6001600160a01b03811633146115535760405162461bcd60e51b815260206004820152602d60248201527f5b4d61726b6574706c6163654e46542e736f6c5d204f6e6c79206f776e65722060448201526c31b0b7103634b9ba1027232a1760991b60648201526084016109a0565b604080514260208083019190915281830187905233606090811b6bffffffffffffffffffffffff199081168285015289821b16607484015260888084018890528451808503909101815260a88401808652815191840191909120610148850186528082526001600160a01b0380881660c8870181815260e888018d8152838f166101088a01818152610128909a018e815260008581526101f78b528c81208882528b528c81209851895593516001808a0180549289166001600160a01b031993841617905593516002808b01919091559b5160038a01805491891691831691909117905590516004909801979097558a519788018b52858852878901938452878b018e81529083526101f889528a83208f845290985298902094518555519684018054979091169690921695909517905590519101556101f5546101fb546116ad916001600160a01b03868116923392919091169061273e565b604051632142170760e11b81526001600160a01b038716906342842e0e906116dd90339030908a90600401613420565b600060405180830381600087803b1580156116f757600080fd5b505af115801561170b573d6000803e3d6000fd5b505050506001600160a01b0382811660008181526101f9602090815260408083208054600181018255908452928290209092018990558151858152908101899052908101879052918816917fa989875f69d62b10ccdf23414293a2d1849f6be3cdb0eec4e15d4d76331216db9060600160405180910390a35050600160fb5550505050565b6097546001600160a01b031633146117ba5760405162461bcd60e51b81526004016109a090613610565b6101f654600160a01b900460ff166118275760405162461bcd60e51b815260206004820152602a60248201527f5b4d61726b6574706c6163652e7768656e4d61726b6574706c616365506175736044820152691959174814185d5cd95960b21b60648201526084016109a0565b6101f6805460ff60a01b191690556040517fd001d10255712362a84feca0452f8c05e078fc582dc6e2107e9226c8b6f2459e90600090a1565b61186a338361211d565b6118865760405162461bcd60e51b81526004016109a090613696565b61189284848484612796565b50505050565b600081815261016160205260409020546060906001600160a01b03166119185760405162461bcd60e51b815260206004820152602f60248201527f4552433732314d657461646174613a2055524920717565727920666f72206e6f60448201526e3732bc34b9ba32b73a103a37b5b2b760891b60648201526084016109a0565b600061192f60408051602081019091526000815290565b9050600081511161194f576040518060200160405280600081525061197a565b80611959846127c9565b60405160200161196a9291906133f1565b6040516020818303038152906040525b9392505050565b6097546001600160a01b031633146119ab5760405162461bcd60e51b81526004016109a090613610565b620f42408110611a135760405162461bcd60e51b815260206004820152602d60248201527f546865206f776e6572206375742073686f756c64206265206265747765656e2060448201526c3020616e64203939392c39393960981b60648201526084016109a0565b6101fa8190556040518181527f672a136d2daefacf8292f86a49ebdd831c133ba5355e3018e45116a9a0720e8090602001610b38565b6097546001600160a01b03163314611a735760405162461bcd60e51b81526004016109a090613610565b6101f654600160a01b900460ff1615611a9e5760405162461bcd60e51b81526004016109a090613645565b6101f6805460ff60a01b1916600160a01b1790556040517fe0bd83742e0a7abf25fbe63802d0fffb64d92ed54104b9d0f093fcac4538b5c390600090a1565b600260fb541415611b005760405162461bcd60e51b81526004016109a090613732565b600260fb556101f654600160a01b900460ff1615611b305760405162461bcd60e51b81526004016109a090613645565b6101f6546001600160a01b0383811660009081526101f7602090815260408083208684528252808320815160a0810183528154815260018201548616938101849052600282015492810192909252600381015485166060830152600401546080820181905293909416939192611c055760405162461bcd60e51b815260206004820152603460248201527f5b4d61726b6574706c6163654e46542e657865637574654c69737465644e46546044820152732e9027232a1034b9b713ba1032bc34b9ba32b21760611b60648201526084016109a0565b6001600160a01b038116331415611c845760405162461bcd60e51b815260206004820152603960248201527f5b4d61726b6574706c6163654e46542e657865637574654c69737465644e465460448201527f5d2043616e27742062757920796f7572206f776e206e66742e0000000000000060648201526084016109a0565b60208201516080830151611ca5916001600160a01b0387169133919061273e565b620f42406101fa548360800151611cbc9190613795565b611cc69190613781565b6101f554909350611ce6906001600160a01b03868116913391168661273e565b611cf4826040015182612542565b6001600160a01b0380871660009081526101f7602090815260408083208984528252808320838155600180820180546001600160a01b0319908116909155600280840187905560038401805483169055600493840187905560608a018051891688526101f887528588208b870180518a52975285882088815593840180549093169092559190910194909455925191519051632142170760e11b815291909316926342842e0e92611dab9230923392909101613420565b600060405180830381600087803b158015611dc557600080fd5b505af1158015611dd9573d6000803e3d6000fd5b5050505081606001516001600160a01b0316336001600160a01b031683602001516001600160a01b03167fb4fb49678f8569115b3dd8eec31e0656c0c37e1a8d68b156e3a7af8565f90ea28886604001518760800151604051611e4f939291909283526020830191909152604082015260600190565b60405180910390a45050600160fb5550505050565b6001600160a01b0391821660009081526101646020908152604080832093909416825291909152205460ff1690565b6000611e9f60016128c7565b90508015611eb7576000805461ff0019166101001790555b6101f580546001600160a01b038088166001600160a01b0319928316179092556101f68054928716929091169190911790556101fb8390556101fa829055611efd61294f565b8015611f43576000805461ff0019169055604051600181527f7f26b83ff96e1f2b6a682f133852f6798a09c465da95921460cefb38474024989060200160405180910390a15b5050505050565b6097546001600160a01b03163314611f745760405162461bcd60e51b81526004016109a090613610565b6001600160a01b038116611fd95760405162461bcd60e51b815260206004820152602660248201527f4f776e61626c653a206e6577206f776e657220697320746865207a65726f206160448201526564647265737360d01b60648201526084016109a0565b610d9c8161261c565b6040805160a0808201835260008083526020808401829052838501829052606080850183905260808086018490526001600160a01b0389811685526101f78452878520898652845293879020875195860188528054808752600182015486169487019490945260028101549786019790975260038701549093169084015260049094015490820152909161197a5760405162461bcd60e51b8152602060048201526013602482015272105cdcd95d081b9bdd081c1d589b1a5cda1959606a1b60448201526064016109a0565b60008181526101636020526040902080546001600160a01b0319166001600160a01b03841690811790915581906120e482611258565b6001600160a01b03167f8c5be1e5ebec7d5bd14f71427d1e84f3dd0314c0f7b2291e5b200ac8c7c3b92560405160405180910390a45050565b600081815261016160205260408120546001600160a01b03166121975760405162461bcd60e51b815260206004820152602c60248201527f4552433732313a206f70657261746f7220717565727920666f72206e6f6e657860448201526b34b9ba32b73a103a37b5b2b760a11b60648201526084016109a0565b60006121a283611258565b9050806001600160a01b0316846001600160a01b031614806121c957506121c98185611e64565b80610b4c5750836001600160a01b03166121e28461092a565b6001600160a01b031614949350505050565b826001600160a01b031661220782611258565b6001600160a01b03161461226b5760405162461bcd60e51b815260206004820152602560248201527f4552433732313a207472616e736665722066726f6d20696e636f72726563742060448201526437bbb732b960d91b60648201526084016109a0565b6001600160a01b0382166122cd5760405162461bcd60e51b8152602060048201526024808201527f4552433732313a207472616e7366657220746f20746865207a65726f206164646044820152637265737360e01b60648201526084016109a0565b6122d883838361297e565b6122e36000826120ae565b6001600160a01b03831660009081526101626020526040812080546001929061230d9084906137b4565b90915550506001600160a01b03821660009081526101626020526040812080546001929061233c908490613769565b90915550506000818152610161602052604080822080546001600160a01b0319166001600160a01b0386811691821790925591518493918716917fddf252ad1be2c89b69c2b068fc378daa952ba7f163c4a11628f55a4df523b3ef91a4505050565b6097546001600160a01b03163314610d9c5760405162461bcd60e51b81526004016109a090613610565b7f4910fdfa16fed3260ed0e7147f7cc6da11a60208b5b9406d12a635614ffd91435460ff16156123fb57610ad7836129e6565b826001600160a01b03166352d1902d6040518163ffffffff1660e01b815260040160206040518083038186803b15801561243457600080fd5b505afa925050508015612464575060408051601f3d908101601f191682019092526124619181019061333d565b60015b6124c75760405162461bcd60e51b815260206004820152602e60248201527f45524331393637557067726164653a206e657720696d706c656d656e7461746960448201526d6f6e206973206e6f74205555505360901b60648201526084016109a0565b60008051602061390983398151915281146125365760405162461bcd60e51b815260206004820152602960248201527f45524331393637557067726164653a20756e737570706f727465642070726f786044820152681a58589b195555525160ba1b60648201526084016109a0565b50610ad7838383612a82565b600061254e8383612aa7565b6001600160a01b03831660009081526101f960205260409020805491925090612579906001906137b4565b81548110612589576125896138a3565b90600052602060002001546101f96000846001600160a01b03166001600160a01b0316815260200190815260200160002082815481106125cb576125cb6138a3565b60009182526020808320909101929092556001600160a01b03841681526101f9909152604090208054806126015761260161388d565b60019003818190600052602060002001600090559055505050565b609780546001600160a01b038381166001600160a01b0319831681179093556040519116919082907f8be0079c531659141344cd1fd0a4f28419497f9722a3daafe3b4186f6b6457e090600090a35050565b816001600160a01b0316836001600160a01b031614156126d05760405162461bcd60e51b815260206004820152601960248201527f4552433732313a20617070726f766520746f2063616c6c65720000000000000060448201526064016109a0565b6001600160a01b0383811660008181526101646020908152604080832094871680845294825291829020805460ff191686151590811790915591519182527f17307eab39ab6107e8899845ad3d59bd9653f200f220920489ca2b5937696c31910160405180910390a3505050565b611892846323b872dd60e01b85858560405160240161275f93929190613420565b60408051601f198184030181529190526020810180516001600160e01b03166001600160e01b031990931692909217909152612b95565b6127a18484846121f4565b6127ad84848484612c67565b6118925760405162461bcd60e51b81526004016109a0906134d8565b6060816127ed5750506040805180820190915260018152600360fc1b602082015290565b8160005b8115612817578061280181613832565b91506128109050600a83613781565b91506127f1565b60008167ffffffffffffffff811115612832576128326138b9565b6040519080825280601f01601f19166020018201604052801561285c576020820181803683370190505b5090505b8415610b4c576128716001836137b4565b915061287e600a8661384d565b612889906030613769565b60f81b81838151811061289e5761289e6138a3565b60200101906001600160f81b031916908160001a9053506128c0600a86613781565b9450612860565b60008054610100900460ff161561290e578160ff1660011480156128ea5750303b155b6129065760405162461bcd60e51b81526004016109a0906135c2565b506000919050565b60005460ff8084169116106129355760405162461bcd60e51b81526004016109a0906135c2565b506000805460ff191660ff92909216919091179055600190565b600054610100900460ff166129765760405162461bcd60e51b81526004016109a0906136e7565b61138c612d71565b6101915460ff1615610ad75760405162461bcd60e51b815260206004820152602b60248201527f4552433732315061757361626c653a20746f6b656e207472616e73666572207760448201526a1a1a5b19481c185d5cd95960aa1b60648201526084016109a0565b6001600160a01b0381163b612a535760405162461bcd60e51b815260206004820152602d60248201527f455243313936373a206e657720696d706c656d656e746174696f6e206973206e60448201526c1bdd08184818dbdb9d1c9858dd609a1b60648201526084016109a0565b60008051602061390983398151915280546001600160a01b0319166001600160a01b0392909216919091179055565b612a8b83612da1565b600082511180612a985750805b15610ad7576118928383612de1565b6000805b6001600160a01b03831660009081526101f96020526040902054811015612b24576001600160a01b03831660009081526101f960205260409020805485919083908110612afa57612afa6138a3565b90600052602060002001541415612b12579050610891565b80612b1c81613832565b915050612aab565b506040805162461bcd60e51b81526020600482015260248101919091527f5b4d61726b6574706c6163654e46542e66696e64496e6465785d2043616e277460448201527f2066696e6420746865206f776e657273686970206f662074686973204e46542e60648201526084016109a0565b6000612bea826040518060400160405280602081526020017f5361666545524332303a206c6f772d6c6576656c2063616c6c206661696c6564815250856001600160a01b0316612ed59092919063ffffffff16565b805190915015610ad75780806020019051810190612c089190613320565b610ad75760405162461bcd60e51b815260206004820152602a60248201527f5361666545524332303a204552433230206f7065726174696f6e20646964206e6044820152691bdd081cdd58d8d9595960b21b60648201526084016109a0565b60006001600160a01b0384163b15612d6957604051630a85bd0160e11b81526001600160a01b0385169063150b7a0290612cab903390899088908890600401613444565b602060405180830381600087803b158015612cc557600080fd5b505af1925050508015612cf5575060408051601f3d908101601f19168201909252612cf291810190613373565b60015b612d4f573d808015612d23576040519150601f19603f3d011682016040523d82523d6000602084013e612d28565b606091505b508051612d475760405162461bcd60e51b81526004016109a0906134d8565b805181602001fd5b6001600160e01b031916630a85bd0160e11b149050610b4c565b506001610b4c565b600054610100900460ff16612d985760405162461bcd60e51b81526004016109a0906136e7565b61138c3361261c565b612daa816129e6565b6040516001600160a01b038216907fbc7cd75a20ee27fd9adebab32041f755214dbc6bffa90cc0225b39da2e5c2d3b90600090a250565b60606001600160a01b0383163b612e495760405162461bcd60e51b815260206004820152602660248201527f416464726573733a2064656c65676174652063616c6c20746f206e6f6e2d636f6044820152651b9d1c9858dd60d21b60648201526084016109a0565b600080846001600160a01b031684604051612e6491906133d5565b600060405180830381855af49150503d8060008114612e9f576040519150601f19603f3d011682016040523d82523d6000602084013e612ea4565b606091505b5091509150612ecc828260405180606001604052806027815260200161392960279139612ee4565b95945050505050565b6060610b4c8484600085612f1d565b60608315612ef357508161197a565b825115612f035782518084602001fd5b8160405162461bcd60e51b81526004016109a091906134c5565b606082471015612f7e5760405162461bcd60e51b815260206004820152602660248201527f416464726573733a20696e73756666696369656e742062616c616e636520666f6044820152651c8818d85b1b60d21b60648201526084016109a0565b6001600160a01b0385163b612fd55760405162461bcd60e51b815260206004820152601d60248201527f416464726573733a2063616c6c20746f206e6f6e2d636f6e747261637400000060448201526064016109a0565b600080866001600160a01b03168587604051612ff191906133d5565b60006040518083038185875af1925050503d806000811461302e576040519150601f19603f3d011682016040523d82523d6000602084013e613033565b606091505b5091509150613043828286612ee4565b979650505050505050565b600082601f83011261305f57600080fd5b813567ffffffffffffffff8082111561307a5761307a6138b9565b604051601f8301601f19908116603f011681019082821181831017156130a2576130a26138b9565b816040528381528660208588010111156130bb57600080fd5b836020870160208301376000602085830101528094505050505092915050565b6000602082840312156130ed57600080fd5b813561197a816138cf565b60006020828403121561310a57600080fd5b815161197a816138cf565b6000806040838503121561312857600080fd5b8235613133816138cf565b91506020830135613143816138cf565b809150509250929050565b60008060006060848603121561316357600080fd5b833561316e816138cf565b9250602084013561317e816138cf565b929592945050506040919091013590565b600080600080608085870312156131a557600080fd5b84356131b0816138cf565b935060208501356131c0816138cf565b925060408501359150606085013567ffffffffffffffff8111156131e357600080fd5b6131ef8782880161304e565b91505092959194509250565b6000806000806080858703121561321157600080fd5b843561321c816138cf565b9350602085013561322c816138cf565b93969395505050506040820135916060013590565b6000806040838503121561325457600080fd5b823561325f816138cf565b91506020830135613143816138e4565b6000806040838503121561328257600080fd5b823561328d816138cf565b946020939093013593505050565b600080604083850312156132ae57600080fd5b82356132b9816138cf565b9150602083013567ffffffffffffffff8111156132d557600080fd5b6132e18582860161304e565b9150509250929050565b60008060006060848603121561330057600080fd5b833561330b816138cf565b95602085013595506040909401359392505050565b60006020828403121561333257600080fd5b815161197a816138e4565b60006020828403121561334f57600080fd5b5051919050565b60006020828403121561336857600080fd5b813561197a816138f2565b60006020828403121561338557600080fd5b815161197a816138f2565b6000602082840312156133a257600080fd5b5035919050565b600081518084526133c18160208601602086016137cb565b601f01601f19169290920160200192915050565b600082516133e78184602087016137cb565b9190910192915050565b600083516134038184602088016137cb565b8351908301906134178183602088016137cb565b01949350505050565b6001600160a01b039384168152919092166020820152604081019190915260600190565b6001600160a01b0385811682528416602082015260408101839052608060608201819052600090613477908301846133a9565b9695505050505050565b6020808252825182820181905260009190848201906040850190845b818110156134b95783518352928401929184019160010161349d565b50909695505050505050565b60208152600061197a60208301846133a9565b60208082526032908201527f4552433732313a207472616e7366657220746f206e6f6e20455243373231526560408201527131b2b4bb32b91034b6b83632b6b2b73a32b960711b606082015260800190565b6020808252602c908201527f46756e6374696f6e206d7573742062652063616c6c6564207468726f7567682060408201526b19195b1959d85d1958d85b1b60a21b606082015260800190565b6020808252602c908201527f46756e6374696f6e206d7573742062652063616c6c6564207468726f7567682060408201526b6163746976652070726f787960a01b606082015260800190565b6020808252602e908201527f496e697469616c697a61626c653a20636f6e747261637420697320616c72656160408201526d191e481a5b9a5d1a585b1a5e995960921b606082015260800190565b6020808252818101527f4f776e61626c653a2063616c6c6572206973206e6f7420746865206f776e6572604082015260600190565b60208082526031908201527f5b4d61726b6574706c6163652e7768656e4d61726b6574706c6163654e6f7450604082015270185d5cd9591748139bdd0814185d5cd959607a1b606082015260800190565b60208082526031908201527f4552433732313a207472616e736665722063616c6c6572206973206e6f74206f6040820152701ddb995c881b9bdc88185c1c1c9bdd9959607a1b606082015260800190565b6020808252602b908201527f496e697469616c697a61626c653a20636f6e7472616374206973206e6f74206960408201526a6e697469616c697a696e6760a81b606082015260800190565b6020808252601f908201527f5265656e7472616e637947756172643a207265656e7472616e742063616c6c00604082015260600190565b6000821982111561377c5761377c613861565b500190565b60008261379057613790613877565b500490565b60008160001904831182151516156137af576137af613861565b500290565b6000828210156137c6576137c6613861565b500390565b60005b838110156137e65781810151838201526020016137ce565b838111156118925750506000910152565b600181811c9082168061380b57607f821691505b6020821081141561382c57634e487b7160e01b600052602260045260246000fd5b50919050565b600060001982141561384657613846613861565b5060010190565b60008261385c5761385c613877565b500690565b634e487b7160e01b600052601160045260246000fd5b634e487b7160e01b600052601260045260246000fd5b634e487b7160e01b600052603160045260246000fd5b634e487b7160e01b600052603260045260246000fd5b634e487b7160e01b600052604160045260246000fd5b6001600160a01b0381168114610d9c57600080fd5b8015158114610d9c57600080fd5b6001600160e01b031981168114610d9c57600080fdfe360894a13ba1a3210667c828492db98dca3e2076cc3735a920a3ca505d382bbc416464726573733a206c6f772d6c6576656c2064656c65676174652063616c6c206661696c6564a264697066735822122031a793fd888c935a652f83e5a1f0b36dbb092e40913d1c0ddf2ac916eef3c68864736f6c63430008070033",
  "linkReferences": {},
  "deployedLinkReferences": {}
}