{
  "_format": "hh-sol-artifact-1",
  "contractName": "LandNFT",
  "sourceName": "contracts/LandNFT.sol",
  "abi": [
    {
      "inputs": [
        {
          "internalType": "address",
          "name": "_currency",
          "type": "address"
        },
        {
          "internalType": "address",
          "name": "_admin",
          "type": "address"
        },
        {
          "internalType": "string",
          "name": "_baseTokenURI",
          "type": "string"
        },
        {
          "internalType": "uint256",
          "name": "_maxSupply",
          "type": "uint256"
        },
        {
          "internalType": "uint256",
          "name": "_landprice",
          "type": "uint256"
        }
      ],
      "stateMutability": "nonpayable",
      "type": "constructor"
    },
    {
      "anonymous": false,
      "inputs": [
        {
          "indexed": true,
          "internalType": "address",
          "name": "owner",
          "type": "address"
        },
        {
          "indexed": true,
          "internalType": "address",
          "name": "approved",
          "type": "address"
        },
        {
          "indexed": true,
          "internalType": "uint256",
          "name": "tokenId",
          "type": "uint256"
        }
      ],
      "name": "Approval",
      "type": "event"
    },
    {
      "anonymous": false,
      "inputs": [
        {
          "indexed": true,
          "internalType": "address",
          "name": "owner",
          "type": "address"
        },
        {
          "indexed": true,
          "internalType": "address",
          "name": "operator",
          "type": "address"
        },
        {
          "indexed": false,
          "internalType": "bool",
          "name": "approved",
          "type": "bool"
        }
      ],
      "name": "ApprovalForAll",
      "type": "event"
    },
    {
      "anonymous": false,
      "inputs": [
        {
          "indexed": false,
          "internalType": "address",
          "name": "to",
          "type": "address"
        },
        {
          "indexed": false,
          "internalType": "uint256",
          "name": "landId",
          "type": "uint256"
        }
      ],
      "name": "Mint",
      "type": "event"
    },
    {
      "anonymous": false,
      "inputs": [
        {
          "indexed": false,
          "internalType": "address",
          "name": "to",
          "type": "address"
        },
        {
          "indexed": false,
          "internalType": "uint256",
          "name": "landId",
          "type": "uint256"
        },
        {
          "indexed": false,
          "internalType": "uint256",
          "name": "price",
          "type": "uint256"
        }
      ],
      "name": "MintWithPrice",
      "type": "event"
    },
    {
      "anonymous": false,
      "inputs": [
        {
          "indexed": true,
          "internalType": "address",
          "name": "previousOwner",
          "type": "address"
        },
        {
          "indexed": true,
          "internalType": "address",
          "name": "newOwner",
          "type": "address"
        }
      ],
      "name": "OwnershipTransferred",
      "type": "event"
    },
    {
      "anonymous": false,
      "inputs": [
        {
          "indexed": false,
          "internalType": "address",
          "name": "account",
          "type": "address"
        }
      ],
      "name": "Paused",
      "type": "event"
    },
    {
      "anonymous": false,
      "inputs": [
        {
          "indexed": true,
          "internalType": "bytes32",
          "name": "role",
          "type": "bytes32"
        },
        {
          "indexed": true,
          "internalType": "bytes32",
          "name": "previousAdminRole",
          "type": "bytes32"
        },
        {
          "indexed": true,
          "internalType": "bytes32",
          "name": "newAdminRole",
          "type": "bytes32"
        }
      ],
      "name": "RoleAdminChanged",
      "type": "event"
    },
    {
      "anonymous": false,
      "inputs": [
        {
          "indexed": true,
          "internalType": "bytes32",
          "name": "role",
          "type": "bytes32"
        },
        {
          "indexed": true,
          "internalType": "address",
          "name": "account",
          "type": "address"
        },
        {
          "indexed": true,
          "internalType": "address",
          "name": "sender",
          "type": "address"
        }
      ],
      "name": "RoleGranted",
      "type": "event"
    },
    {
      "anonymous": false,
      "inputs": [
        {
          "indexed": true,
          "internalType": "bytes32",
          "name": "role",
          "type": "bytes32"
        },
        {
          "indexed": true,
          "internalType": "address",
          "name": "account",
          "type": "address"
        },
        {
          "indexed": true,
          "internalType": "address",
          "name": "sender",
          "type": "address"
        }
      ],
      "name": "RoleRevoked",
      "type": "event"
    },
    {
      "anonymous": false,
      "inputs": [
        {
          "indexed": true,
          "internalType": "address",
          "name": "from",
          "type": "address"
        },
        {
          "indexed": true,
          "internalType": "address",
          "name": "to",
          "type": "address"
        },
        {
          "indexed": true,
          "internalType": "uint256",
          "name": "tokenId",
          "type": "uint256"
        }
      ],
      "name": "Transfer",
      "type": "event"
    },
    {
      "anonymous": false,
      "inputs": [
        {
          "indexed": false,
          "internalType": "address",
          "name": "account",
          "type": "address"
        }
      ],
      "name": "Unpaused",
      "type": "event"
    },
    {
      "stateMutability": "payable",
      "type": "fallback"
    },
    {
      "inputs": [],
      "name": "DEFAULT_ADMIN_ROLE",
      "outputs": [
        {
          "internalType": "bytes32",
          "name": "",
          "type": "bytes32"
        }
      ],
      "stateMutability": "view",
      "type": "function"
    },
    {
      "inputs": [],
      "name": "WORKER_ROLE",
      "outputs": [
        {
          "internalType": "bytes32",
          "name": "",
          "type": "bytes32"
        }
      ],
      "stateMutability": "view",
      "type": "function"
    },
    {
      "inputs": [],
      "name": "admin",
      "outputs": [
        {
          "internalType": "address",
          "name": "",
          "type": "address"
        }
      ],
      "stateMutability": "view",
      "type": "function"
    },
    {
      "inputs": [
        {
          "internalType": "address",
          "name": "to",
          "type": "address"
        },
        {
          "internalType": "uint256",
          "name": "tokenId",
          "type": "uint256"
        }
      ],
      "name": "approve",
      "outputs": [],
      "stateMutability": "nonpayable",
      "type": "function"
    },
    {
      "inputs": [
        {
          "internalType": "address",
          "name": "owner",
          "type": "address"
        }
      ],
      "name": "balanceOf",
      "outputs": [
        {
          "internalType": "uint256",
          "name": "",
          "type": "uint256"
        }
      ],
      "stateMutability": "view",
      "type": "function"
    },
    {
      "inputs": [],
      "name": "baseTokenURI",
      "outputs": [
        {
          "internalType": "string",
          "name": "",
          "type": "string"
        }
      ],
      "stateMutability": "view",
      "type": "function"
    },
    {
      "inputs": [
        {
          "internalType": "uint256",
          "name": "tokenId",
          "type": "uint256"
        }
      ],
      "name": "burn",
      "outputs": [],
      "stateMutability": "nonpayable",
      "type": "function"
    },
    {
      "inputs": [],
      "name": "currency",
      "outputs": [
        {
          "internalType": "contract IERC20",
          "name": "",
          "type": "address"
        }
      ],
      "stateMutability": "view",
      "type": "function"
    },
    {
      "inputs": [
        {
          "internalType": "uint256",
          "name": "tokenId",
          "type": "uint256"
        }
      ],
      "name": "getApproved",
      "outputs": [
        {
          "internalType": "address",
          "name": "",
          "type": "address"
        }
      ],
      "stateMutability": "view",
      "type": "function"
    },
    {
      "inputs": [
        {
          "internalType": "bytes32",
          "name": "role",
          "type": "bytes32"
        }
      ],
      "name": "getRoleAdmin",
      "outputs": [
        {
          "internalType": "bytes32",
          "name": "",
          "type": "bytes32"
        }
      ],
      "stateMutability": "view",
      "type": "function"
    },
    {
      "inputs": [
        {
          "internalType": "bytes32",
          "name": "role",
          "type": "bytes32"
        },
        {
          "internalType": "address",
          "name": "account",
          "type": "address"
        }
      ],
      "name": "grantRole",
      "outputs": [],
      "stateMutability": "nonpayable",
      "type": "function"
    },
    {
      "inputs": [
        {
          "internalType": "bytes32",
          "name": "role",
          "type": "bytes32"
        },
        {
          "internalType": "address",
          "name": "account",
          "type": "address"
        }
      ],
      "name": "hasRole",
      "outputs": [
        {
          "internalType": "bool",
          "name": "",
          "type": "bool"
        }
      ],
      "stateMutability": "view",
      "type": "function"
    },
    {
      "inputs": [
        {
          "internalType": "address",
          "name": "owner",
          "type": "address"
        },
        {
          "internalType": "address",
          "name": "operator",
          "type": "address"
        }
      ],
      "name": "isApprovedForAll",
      "outputs": [
        {
          "internalType": "bool",
          "name": "",
          "type": "bool"
        }
      ],
      "stateMutability": "view",
      "type": "function"
    },
    {
      "inputs": [],
      "name": "landprice",
      "outputs": [
        {
          "internalType": "uint256",
          "name": "",
          "type": "uint256"
        }
      ],
      "stateMutability": "view",
      "type": "function"
    },
    {
      "inputs": [],
      "name": "maxSupply",
      "outputs": [
        {
          "internalType": "uint256",
          "name": "",
          "type": "uint256"
        }
      ],
      "stateMutability": "view",
      "type": "function"
    },
    {
      "inputs": [
        {
          "internalType": "uint256",
          "name": "_landId",
          "type": "uint256"
        }
      ],
      "name": "mint",
      "outputs": [],
      "stateMutability": "nonpayable",
      "type": "function"
    },
    {
      "inputs": [
        {
          "internalType": "uint256",
          "name": "_landId",
          "type": "uint256"
        },
        {
          "internalType": "uint256",
          "name": "_price",
          "type": "uint256"
        }
      ],
      "name": "mintWithPrice",
      "outputs": [],
      "stateMutability": "nonpayable",
      "type": "function"
    },
    {
      "inputs": [],
      "name": "name",
      "outputs": [
        {
          "internalType": "string",
          "name": "",
          "type": "string"
        }
      ],
      "stateMutability": "view",
      "type": "function"
    },
    {
      "inputs": [],
      "name": "owner",
      "outputs": [
        {
          "internalType": "address",
          "name": "",
          "type": "address"
        }
      ],
      "stateMutability": "view",
      "type": "function"
    },
    {
      "inputs": [
        {
          "internalType": "uint256",
          "name": "tokenId",
          "type": "uint256"
        }
      ],
      "name": "ownerOf",
      "outputs": [
        {
          "internalType": "address",
          "name": "",
          "type": "address"
        }
      ],
      "stateMutability": "view",
      "type": "function"
    },
    {
      "inputs": [],
      "name": "pause",
      "outputs": [],
      "stateMutability": "nonpayable",
      "type": "function"
    },
    {
      "inputs": [],
      "name": "paused",
      "outputs": [
        {
          "internalType": "bool",
          "name": "",
          "type": "bool"
        }
      ],
      "stateMutability": "view",
      "type": "function"
    },
    {
      "inputs": [],
      "name": "renounceOwnership",
      "outputs": [],
      "stateMutability": "nonpayable",
      "type": "function"
    },
    {
      "inputs": [
        {
          "internalType": "bytes32",
          "name": "role",
          "type": "bytes32"
        },
        {
          "internalType": "address",
          "name": "account",
          "type": "address"
        }
      ],
      "name": "renounceRole",
      "outputs": [],
      "stateMutability": "nonpayable",
      "type": "function"
    },
    {
      "inputs": [
        {
          "internalType": "bytes32",
          "name": "role",
          "type": "bytes32"
        },
        {
          "internalType": "address",
          "name": "account",
          "type": "address"
        }
      ],
      "name": "revokeRole",
      "outputs": [],
      "stateMutability": "nonpayable",
      "type": "function"
    },
    {
      "inputs": [
        {
          "internalType": "address",
          "name": "from",
          "type": "address"
        },
        {
          "internalType": "address",
          "name": "to",
          "type": "address"
        },
        {
          "internalType": "uint256",
          "name": "tokenId",
          "type": "uint256"
        }
      ],
      "name": "safeTransfer",
      "outputs": [],
      "stateMutability": "nonpayable",
      "type": "function"
    },
    {
      "inputs": [
        {
          "internalType": "address",
          "name": "from",
          "type": "address"
        },
        {
          "internalType": "address",
          "name": "to",
          "type": "address"
        },
        {
          "internalType": "uint256",
          "name": "tokenId",
          "type": "uint256"
        },
        {
          "internalType": "bytes",
          "name": "_data",
          "type": "bytes"
        }
      ],
      "name": "safeTransferFrom",
      "outputs": [],
      "stateMutability": "nonpayable",
      "type": "function"
    },
    {
      "inputs": [
        {
          "internalType": "address",
          "name": "operator",
          "type": "address"
        },
        {
          "internalType": "bool",
          "name": "approved",
          "type": "bool"
        }
      ],
      "name": "setApprovalForAll",
      "outputs": [],
      "stateMutability": "nonpayable",
      "type": "function"
    },
    {
      "inputs": [
        {
          "internalType": "string",
          "name": "_baseTokenURI",
          "type": "string"
        }
      ],
      "name": "setBaseURI",
      "outputs": [],
      "stateMutability": "nonpayable",
      "type": "function"
    },
    {
      "inputs": [
        {
          "internalType": "uint256",
          "name": "_maxSupply",
          "type": "uint256"
        },
        {
          "internalType": "uint256",
          "name": "_price",
          "type": "uint256"
        }
      ],
      "name": "setMaxSupplyPrice",
      "outputs": [],
      "stateMutability": "nonpayable",
      "type": "function"
    },
    {
      "inputs": [
        {
          "internalType": "bytes4",
          "name": "_interfaceId",
          "type": "bytes4"
        }
      ],
      "name": "supportsInterface",
      "outputs": [
        {
          "internalType": "bool",
          "name": "",
          "type": "bool"
        }
      ],
      "stateMutability": "view",
      "type": "function"
    },
    {
      "inputs": [],
      "name": "symbol",
      "outputs": [
        {
          "internalType": "string",
          "name": "",
          "type": "string"
        }
      ],
      "stateMutability": "view",
      "type": "function"
    },
    {
      "inputs": [
        {
          "internalType": "uint256",
          "name": "index",
          "type": "uint256"
        }
      ],
      "name": "tokenByIndex",
      "outputs": [
        {
          "internalType": "uint256",
          "name": "",
          "type": "uint256"
        }
      ],
      "stateMutability": "view",
      "type": "function"
    },
    {
      "inputs": [
        {
          "internalType": "address",
          "name": "owner",
          "type": "address"
        },
        {
          "internalType": "uint256",
          "name": "index",
          "type": "uint256"
        }
      ],
      "name": "tokenOfOwnerByIndex",
      "outputs": [
        {
          "internalType": "uint256",
          "name": "",
          "type": "uint256"
        }
      ],
      "stateMutability": "view",
      "type": "function"
    },
    {
      "inputs": [
        {
          "internalType": "uint256",
          "name": "_tokenId",
          "type": "uint256"
        }
      ],
      "name": "tokenURI",
      "outputs": [
        {
          "internalType": "string",
          "name": "",
          "type": "string"
        }
      ],
      "stateMutability": "view",
      "type": "function"
    },
    {
      "inputs": [],
      "name": "totalMint",
      "outputs": [
        {
          "internalType": "uint256",
          "name": "",
          "type": "uint256"
        }
      ],
      "stateMutability": "view",
      "type": "function"
    },
    {
      "inputs": [],
      "name": "totalSupply",
      "outputs": [
        {
          "internalType": "uint256",
          "name": "",
          "type": "uint256"
        }
      ],
      "stateMutability": "view",
      "type": "function"
    },
    {
      "inputs": [
        {
          "internalType": "address",
          "name": "from",
          "type": "address"
        },
        {
          "internalType": "address",
          "name": "to",
          "type": "address"
        },
        {
          "internalType": "uint256",
          "name": "tokenId",
          "type": "uint256"
        }
      ],
      "name": "transferFrom",
      "outputs": [],
      "stateMutability": "nonpayable",
      "type": "function"
    },
    {
      "inputs": [
        {
          "internalType": "address",
          "name": "newOwner",
          "type": "address"
        }
      ],
      "name": "transferOwnership",
      "outputs": [],
      "stateMutability": "nonpayable",
      "type": "function"
    },
    {
      "inputs": [],
      "name": "unpause",
      "outputs": [],
      "stateMutability": "nonpayable",
      "type": "function"
    },
    {
      "stateMutability": "payable",
      "type": "receive"
    }
  ],
  "bytecode": "0x60806040523480156200001157600080fd5b50604051620036c5380380620036c58339810160408190526200003491620002fa565b60408051808201825260088152671b185b990813919560c21b60208083019182528351808501909452600784526613185b9913919560ca1b908401528151919291620000839160009162000237565b5080516200009990600190602084019062000237565b505050620000b6620000b06200012d60201b60201c565b62000131565b600d805460ff191690556001600e55601180546001600160a01b038088166001600160a01b031992831617909255601480549287169290911691909117905582516200010a90601090602086019062000237565b50601281905560138290556200012260003362000183565b505050505062000462565b3390565b600b80546001600160a01b038381166001600160a01b0319831681179093556040519116919082907f8be0079c531659141344cd1fd0a4f28419497f9722a3daafe3b4186f6b6457e090600090a35050565b6200018f828262000193565b5050565b6000828152600c602090815260408083206001600160a01b038516845290915290205460ff166200018f576000828152600c602090815260408083206001600160a01b03851684529091529020805460ff19166001179055620001f33390565b6001600160a01b0316816001600160a01b0316837f2f8788117e7eff1d82e926ec794901d17c78024a50270940304540a733656f0d60405160405180910390a45050565b82805462000245906200040f565b90600052602060002090601f016020900481019282620002695760008555620002b4565b82601f106200028457805160ff1916838001178555620002b4565b82800160010185558215620002b4579182015b82811115620002b457825182559160200191906001019062000297565b50620002c2929150620002c6565b5090565b5b80821115620002c25760008155600101620002c7565b80516001600160a01b0381168114620002f557600080fd5b919050565b600080600080600060a086880312156200031357600080fd5b6200031e86620002dd565b945060206200032f818801620002dd565b60408801519095506001600160401b03808211156200034d57600080fd5b818901915089601f8301126200036257600080fd5b8151818111156200037757620003776200044c565b604051601f8201601f19908116603f01168101908382118183101715620003a257620003a26200044c565b816040528281528c86848701011115620003bb57600080fd5b600093505b82841015620003df5784840186015181850187015292850192620003c0565b82841115620003f15760008684830101525b60608c01516080909c01519a9d999c509a9998975050505050505050565b600181811c908216806200042457607f821691505b602082108114156200044657634e487b7160e01b600052602260045260246000fd5b50919050565b634e487b7160e01b600052604160045260246000fd5b61325380620004726000396000f3fe60806040526004361061023f5760003560e01c80636352211e1161012e578063b7055d2f116100ab578063d5abeb011161006f578063d5abeb01146106a5578063e5a6b10f146106bb578063e985e9c5146106db578063f2fde38b14610724578063f851a4401461074457600080fd5b8063b7055d2f14610610578063b88d4fde14610630578063c87b56dd14610650578063d547741f14610670578063d547cfb71461069057600080fd5b806391d14854116100f257806391d148541461058657806395d89b41146105a6578063a0712d68146105bb578063a217fddf146105db578063a22cb465146105f057600080fd5b80636352211e146104fe57806370a082311461051e578063715018a61461053e5780638456cb59146105535780638da5cb5b1461056857600080fd5b80632f745c59116101bc5780634f6ccce7116101805780634f6ccce71461045d57806355f804b31461047d57806359a7715a1461049d5780635c975abb146104b2578063634252dc146104ca57600080fd5b80632f745c59146103c857806336568abe146103e85780633f4ba83a1461040857806342842e0e1461041d57806342966c681461043d57600080fd5b806312899a061161020357806312899a061461032357806318160ddd1461034357806323b872dd14610358578063248a9ca3146103785780632f2ff15d146103a857600080fd5b806301ffc9a71461024e57806306fdde0314610283578063081812fc146102a5578063095ea7b3146102dd5780630aa08a8e146102ff57600080fd5b3661024957600080fd5b600080fd5b34801561025a57600080fd5b5061026e610269366004612d2d565b610764565b60405190151581526020015b60405180910390f35b34801561028f57600080fd5b50610298610775565b60405161027a9190612f14565b3480156102b157600080fd5b506102c56102c0366004612cf1565b610807565b6040516001600160a01b03909116815260200161027a565b3480156102e957600080fd5b506102fd6102f8366004612caa565b6108a1565b005b34801561030b57600080fd5b5061031560125481565b60405190815260200161027a565b34801561032f57600080fd5b506102fd61033e366004612dc9565b6109b7565b34801561034f57600080fd5b50600954610315565b34801561036457600080fd5b506102fd610373366004612bbb565b610a9a565b34801561038457600080fd5b50610315610393366004612cf1565b6000908152600c602052604090206001015490565b3480156103b457600080fd5b506102fd6103c3366004612d0a565b610acc565b3480156103d457600080fd5b506103156103e3366004612caa565b610af2565b3480156103f457600080fd5b506102fd610403366004612d0a565b610b88565b34801561041457600080fd5b506102fd610c06565b34801561042957600080fd5b506102fd610438366004612bbb565b610c3a565b34801561044957600080fd5b506102fd610458366004612cf1565b610c55565b34801561046957600080fd5b50610315610478366004612cf1565b610ccf565b34801561048957600080fd5b506102fd610498366004612d67565b610d62565b3480156104a957600080fd5b50610315610d9f565b3480156104be57600080fd5b50600d5460ff1661026e565b3480156104d657600080fd5b506103157ff1b411d6abb365480ac902cc153c45e9ded5847a2265ce6d01945d253edb6bc781565b34801561050a57600080fd5b506102c5610519366004612cf1565b610daf565b34801561052a57600080fd5b50610315610539366004612b6d565b610e26565b34801561054a57600080fd5b506102fd610ead565b34801561055f57600080fd5b506102fd610ee1565b34801561057457600080fd5b50600b546001600160a01b03166102c5565b34801561059257600080fd5b5061026e6105a1366004612d0a565b610f13565b3480156105b257600080fd5b50610298610f3e565b3480156105c757600080fd5b506102fd6105d6366004612cf1565b610f4d565b3480156105e757600080fd5b50610315600081565b3480156105fc57600080fd5b506102fd61060b366004612c73565b611166565b34801561061c57600080fd5b506102fd61062b366004612dc9565b611171565b34801561063c57600080fd5b506102fd61064b366004612bf7565b6113c0565b34801561065c57600080fd5b5061029861066b366004612cf1565b6113f8565b34801561067c57600080fd5b506102fd61068b366004612d0a565b611403565b34801561069c57600080fd5b50610298611429565b3480156106b157600080fd5b5061031560135481565b3480156106c757600080fd5b506011546102c5906001600160a01b031681565b3480156106e757600080fd5b5061026e6106f6366004612b88565b6001600160a01b03918216600090815260056020908152604080832093909416825291909152205460ff1690565b34801561073057600080fd5b506102fd61073f366004612b6d565b6114b7565b34801561075057600080fd5b506014546102c5906001600160a01b031681565b600061076f8261154f565b92915050565b60606000805461078490613121565b80601f01602080910402602001604051908101604052809291908181526020018280546107b090613121565b80156107fd5780601f106107d2576101008083540402835291602001916107fd565b820191906000526020600020905b8154815290600101906020018083116107e057829003601f168201915b5050505050905090565b6000818152600260205260408120546001600160a01b03166108855760405162461bcd60e51b815260206004820152602c60248201527f4552433732313a20617070726f76656420717565727920666f72206e6f6e657860448201526b34b9ba32b73a103a37b5b2b760a11b60648201526084015b60405180910390fd5b506000908152600460205260409020546001600160a01b031690565b60006108ac82610daf565b9050806001600160a01b0316836001600160a01b0316141561091a5760405162461bcd60e51b815260206004820152602160248201527f4552433732313a20617070726f76616c20746f2063757272656e74206f776e656044820152603960f91b606482015260840161087c565b336001600160a01b0382161480610936575061093681336106f6565b6109a85760405162461bcd60e51b815260206004820152603860248201527f4552433732313a20617070726f76652063616c6c6572206973206e6f74206f7760448201527f6e6572206e6f7220617070726f76656420666f7220616c6c0000000000000000606482015260840161087c565b6109b28383611574565b505050565b600b546001600160a01b031633146109e15760405162461bcd60e51b815260040161087c90612fa3565b600d5460ff16610a2a5760405162461bcd60e51b815260206004820152601460248201527314185d5cd8589b194e881b9bdd081c185d5cd95960621b604482015260640161087c565b600f54821015610a8f5760405162461bcd60e51b815260206004820152602a60248201527f5b4c616e644e46542e7365744d6178537570706c7950726963655d2053757070604482015269363c9032bc31b2b9b99760b11b606482015260840161087c565b601391909155601255565b610aa5335b826115e2565b610ac15760405162461bcd60e51b815260040161087c9061302b565b6109b28383836116d9565b6000828152600c6020526040902060010154610ae88133611884565b6109b283836118e8565b6000610afd83610e26565b8210610b5f5760405162461bcd60e51b815260206004820152602b60248201527f455243373231456e756d657261626c653a206f776e657220696e646578206f7560448201526a74206f6620626f756e647360a81b606482015260840161087c565b506001600160a01b03919091166000908152600760209081526040808320938352929052205490565b6001600160a01b0381163314610bf85760405162461bcd60e51b815260206004820152602f60248201527f416363657373436f6e74726f6c3a2063616e206f6e6c792072656e6f756e636560448201526e103937b632b9903337b91039b2b63360891b606482015260840161087c565b610c02828261196e565b5050565b600b546001600160a01b03163314610c305760405162461bcd60e51b815260040161087c90612fa3565b610c386119d5565b565b6109b2838383604051806020016040528060008152506113c0565b610c5e33610a9f565b610cc35760405162461bcd60e51b815260206004820152603060248201527f4552433732314275726e61626c653a2063616c6c6572206973206e6f74206f7760448201526f1b995c881b9bdc88185c1c1c9bdd995960821b606482015260840161087c565b610ccc81611a68565b50565b6000610cda60095490565b8210610d3d5760405162461bcd60e51b815260206004820152602c60248201527f455243373231456e756d657261626c653a20676c6f62616c20696e646578206f60448201526b7574206f6620626f756e647360a01b606482015260840161087c565b60098281548110610d5057610d506131cd565b90600052602060002001549050919050565b600b546001600160a01b03163314610d8c5760405162461bcd60e51b815260040161087c90612fa3565b8051610c02906010906020840190612a0c565b6000610daa600f5490565b905090565b6000818152600260205260408120546001600160a01b03168061076f5760405162461bcd60e51b815260206004820152602960248201527f4552433732313a206f776e657220717565727920666f72206e6f6e657869737460448201526832b73a103a37b5b2b760b91b606482015260840161087c565b60006001600160a01b038216610e915760405162461bcd60e51b815260206004820152602a60248201527f4552433732313a2062616c616e636520717565727920666f7220746865207a65604482015269726f206164647265737360b01b606482015260840161087c565b506001600160a01b031660009081526003602052604090205490565b600b546001600160a01b03163314610ed75760405162461bcd60e51b815260040161087c90612fa3565b610c386000611a71565b600b546001600160a01b03163314610f0b5760405162461bcd60e51b815260040161087c90612fa3565b610c38611ac3565b6000918252600c602090815260408084206001600160a01b0393909316845291905290205460ff1690565b60606001805461078490613121565b6002600e541415610fa05760405162461bcd60e51b815260206004820152601f60248201527f5265656e7472616e637947756172643a207265656e7472616e742063616c6c00604482015260640161087c565b6002600e55600d5460ff1615610fc85760405162461bcd60e51b815260040161087c90612f79565b6012546011546040516370a0823160e01b81523360048201526001600160a01b03909116906370a082319060240160206040518083038186803b15801561100e57600080fd5b505afa158015611022573d6000803e3d6000fd5b505050506040513d601f19601f820116820180604052508101906110469190612db0565b116110635760405162461bcd60e51b815260040161087c90612fd8565b601354600f5411156110e95760405162461bcd60e51b815260206004820152604360248201527f5b4c616e644e46542e6d696e745d206c616e64204e4654206f6620746869732060448201527f747970652068617320616c72656164792072656163686564206d6178206c696d60648201526234ba1760e91b608482015260a40161087c565b60145460125460115461110d926001600160a01b0391821692339290911690611b1b565b61111b600f80546001019055565b6111253382611b75565b60408051338152602081018390527f0f6798a560793a54c3bcfe86a93cde1e73087d944c0ea20544137d4121396885910160405180910390a1506001600e55565b610c02338383611b8f565b6002600e5414156111c45760405162461bcd60e51b815260206004820152601f60248201527f5265656e7472616e637947756172643a207265656e7472616e742063616c6c00604482015260640161087c565b6002600e55600d5460ff16156111ec5760405162461bcd60e51b815260040161087c90612f79565b7ff1b411d6abb365480ac902cc153c45e9ded5847a2265ce6d01945d253edb6bc76112178133611884565b6011546040516370a0823160e01b815233600482015283916001600160a01b0316906370a082319060240160206040518083038186803b15801561125a57600080fd5b505afa15801561126e573d6000803e3d6000fd5b505050506040513d601f19601f820116820180604052508101906112929190612db0565b116112af5760405162461bcd60e51b815260040161087c90612fd8565b601354600f54111561133e5760405162461bcd60e51b815260206004820152604c60248201527f5b4c616e644e46542e6d696e745769746850726963655d206c616e64204e465460448201527f206f66207468697320747970652068617320616c72656164792072656163686560648201526b321036b0bc103634b6b4ba1760a11b608482015260a40161087c565b60145460115461135d916001600160a01b039182169133911685611b1b565b61136b600f80546001019055565b6113753384611b75565b60408051338152602081018590529081018390527f63ae3bcbafcb4f900af404b9a3a9880698c9fedf45ae7bd9a12d6ca30430d79f9060600160405180910390a150506001600e5550565b6113ca33836115e2565b6113e65760405162461bcd60e51b815260040161087c9061302b565b6113f284848484611c5e565b50505050565b606061076f82611c91565b6000828152600c602052604090206001015461141f8133611884565b6109b2838361196e565b6010805461143690613121565b80601f016020809104026020016040519081016040528092919081815260200182805461146290613121565b80156114af5780601f10611484576101008083540402835291602001916114af565b820191906000526020600020905b81548152906001019060200180831161149257829003601f168201915b505050505081565b600b546001600160a01b031633146114e15760405162461bcd60e51b815260040161087c90612fa3565b6001600160a01b0381166115465760405162461bcd60e51b815260206004820152602660248201527f4f776e61626c653a206e6577206f776e657220697320746865207a65726f206160448201526564647265737360d01b606482015260840161087c565b610ccc81611a71565b60006001600160e01b03198216637965db0b60e01b148061076f575061076f82611e03565b600081815260046020526040902080546001600160a01b0319166001600160a01b03841690811790915581906115a982610daf565b6001600160a01b03167f8c5be1e5ebec7d5bd14f71427d1e84f3dd0314c0f7b2291e5b200ac8c7c3b92560405160405180910390a45050565b6000818152600260205260408120546001600160a01b031661165b5760405162461bcd60e51b815260206004820152602c60248201527f4552433732313a206f70657261746f7220717565727920666f72206e6f6e657860448201526b34b9ba32b73a103a37b5b2b760a11b606482015260840161087c565b600061166683610daf565b9050806001600160a01b0316846001600160a01b031614806116a15750836001600160a01b031661169684610807565b6001600160a01b0316145b806116d157506001600160a01b0380821660009081526005602090815260408083209388168352929052205460ff165b949350505050565b826001600160a01b03166116ec82610daf565b6001600160a01b0316146117545760405162461bcd60e51b815260206004820152602960248201527f4552433732313a207472616e73666572206f6620746f6b656e2074686174206960448201526839903737ba1037bbb760b91b606482015260840161087c565b6001600160a01b0382166117b65760405162461bcd60e51b8152602060048201526024808201527f4552433732313a207472616e7366657220746f20746865207a65726f206164646044820152637265737360e01b606482015260840161087c565b6117c1838383611e28565b6117cc600082611574565b6001600160a01b03831660009081526003602052604081208054600192906117f59084906130c7565b90915550506001600160a01b038216600090815260036020526040812080546001929061182390849061307c565b909155505060008181526002602052604080822080546001600160a01b0319166001600160a01b0386811691821790925591518493918716917fddf252ad1be2c89b69c2b068fc378daa952ba7f163c4a11628f55a4df523b3ef91a4505050565b61188e8282610f13565b610c02576118a6816001600160a01b03166014611e33565b6118b1836020611e33565b6040516020016118c2929190612e62565b60408051601f198184030181529082905262461bcd60e51b825261087c91600401612f14565b6118f28282610f13565b610c02576000828152600c602090815260408083206001600160a01b03851684529091529020805460ff1916600117905561192a3390565b6001600160a01b0316816001600160a01b0316837f2f8788117e7eff1d82e926ec794901d17c78024a50270940304540a733656f0d60405160405180910390a45050565b6119788282610f13565b15610c02576000828152600c602090815260408083206001600160a01b0385168085529252808320805460ff1916905551339285917ff6391f5c32d9c69d2a47ea670b442974b53935d1edc7fd64eb21e047a839171b9190a45050565b600d5460ff16611a1e5760405162461bcd60e51b815260206004820152601460248201527314185d5cd8589b194e881b9bdd081c185d5cd95960621b604482015260640161087c565b600d805460ff191690557f5db9ee0a495bf2e6ff9c91a7834c1ba4fdd244a5e8aa4e537bd38aeae4b073aa335b6040516001600160a01b03909116815260200160405180910390a1565b610ccc81611fd6565b600b80546001600160a01b038381166001600160a01b0319831681179093556040519116919082907f8be0079c531659141344cd1fd0a4f28419497f9722a3daafe3b4186f6b6457e090600090a35050565b600d5460ff1615611ae65760405162461bcd60e51b815260040161087c90612f79565b600d805460ff191660011790557f62e78cea01bee320cd4e420270b5ea74000d11b0c9f74754ebdbfc544b05a258611a4b3390565b604080516001600160a01b0385811660248301528416604482015260648082018490528251808303909101815260849091019091526020810180516001600160e01b03166323b872dd60e01b1790526113f2908590612016565b610c028282604051806020016040528060008152506120e8565b816001600160a01b0316836001600160a01b03161415611bf15760405162461bcd60e51b815260206004820152601960248201527f4552433732313a20617070726f766520746f2063616c6c657200000000000000604482015260640161087c565b6001600160a01b03838116600081815260056020908152604080832094871680845294825291829020805460ff191686151590811790915591519182527f17307eab39ab6107e8899845ad3d59bd9653f200f220920489ca2b5937696c31910160405180910390a3505050565b611c698484846116d9565b611c758484848461211b565b6113f25760405162461bcd60e51b815260040161087c90612f27565b6000818152600260205260409020546060906001600160a01b0316611d125760405162461bcd60e51b815260206004820152603160248201527f45524337323155524953746f726167653a2055524920717565727920666f72206044820152703737b732bc34b9ba32b73a103a37b5b2b760791b606482015260840161087c565b60008281526006602052604081208054611d2b90613121565b80601f0160208091040260200160405190810160405280929190818152602001828054611d5790613121565b8015611da45780601f10611d7957610100808354040283529160200191611da4565b820191906000526020600020905b815481529060010190602001808311611d8757829003601f168201915b505050505090506000611db5612228565b9050805160001415611dc8575092915050565b815115611dfa578082604051602001611de2929190612e33565b60405160208183030381529060405292505050919050565b6116d184612237565b60006001600160e01b0319821663780e9d6360e01b148061076f575061076f82612311565b6109b2838383612361565b60606000611e428360026130a8565b611e4d90600261307c565b67ffffffffffffffff811115611e6557611e656131e3565b6040519080825280601f01601f191660200182016040528015611e8f576020820181803683370190505b509050600360fc1b81600081518110611eaa57611eaa6131cd565b60200101906001600160f81b031916908160001a905350600f60fb1b81600181518110611ed957611ed96131cd565b60200101906001600160f81b031916908160001a9053506000611efd8460026130a8565b611f0890600161307c565b90505b6001811115611f80576f181899199a1a9b1b9c1cb0b131b232b360811b85600f1660108110611f3c57611f3c6131cd565b1a60f81b828281518110611f5257611f526131cd565b60200101906001600160f81b031916908160001a90535060049490941c93611f798161310a565b9050611f0b565b508315611fcf5760405162461bcd60e51b815260206004820181905260248201527f537472696e67733a20686578206c656e67746820696e73756666696369656e74604482015260640161087c565b9392505050565b611fdf81612419565b60008181526006602052604090208054611ff890613121565b159050610ccc576000818152600660205260408120610ccc91612a90565b600061206b826040518060400160405280602081526020017f5361666545524332303a206c6f772d6c6576656c2063616c6c206661696c6564815250856001600160a01b03166124c09092919063ffffffff16565b8051909150156109b257808060200190518101906120899190612cd4565b6109b25760405162461bcd60e51b815260206004820152602a60248201527f5361666545524332303a204552433230206f7065726174696f6e20646964206e6044820152691bdd081cdd58d8d9595960b21b606482015260840161087c565b6120f283836124cf565b6120ff600084848461211b565b6109b25760405162461bcd60e51b815260040161087c90612f27565b60006001600160a01b0384163b1561221d57604051630a85bd0160e11b81526001600160a01b0385169063150b7a029061215f903390899088908890600401612ed7565b602060405180830381600087803b15801561217957600080fd5b505af19250505080156121a9575060408051601f3d908101601f191682019092526121a691810190612d4a565b60015b612203573d8080156121d7576040519150601f19603f3d011682016040523d82523d6000602084013e6121dc565b606091505b5080516121fb5760405162461bcd60e51b815260040161087c90612f27565b805181602001fd5b6001600160e01b031916630a85bd0160e11b1490506116d1565b506001949350505050565b60606010805461078490613121565b6000818152600260205260409020546060906001600160a01b03166122b65760405162461bcd60e51b815260206004820152602f60248201527f4552433732314d657461646174613a2055524920717565727920666f72206e6f60448201526e3732bc34b9ba32b73a103a37b5b2b760891b606482015260840161087c565b60006122c0612228565b905060008151116122e05760405180602001604052806000815250611fcf565b806122ea8461261d565b6040516020016122fb929190612e33565b6040516020818303038152906040529392505050565b60006001600160e01b031982166380ac58cd60e01b148061234257506001600160e01b03198216635b5e139f60e01b145b8061076f57506301ffc9a760e01b6001600160e01b031983161461076f565b6001600160a01b0383166123bc576123b781600980546000838152600a60205260408120829055600182018355919091527f6e1540171b6c0c960b71a7020d9f60077f6af931a8bbf590da0223dacf75c7af0155565b6123df565b816001600160a01b0316836001600160a01b0316146123df576123df838261271b565b6001600160a01b0382166123f6576109b2816127b8565b826001600160a01b0316826001600160a01b0316146109b2576109b28282612867565b600061242482610daf565b905061243281600084611e28565b61243d600083611574565b6001600160a01b03811660009081526003602052604081208054600192906124669084906130c7565b909155505060008281526002602052604080822080546001600160a01b0319169055518391906001600160a01b038416907fddf252ad1be2c89b69c2b068fc378daa952ba7f163c4a11628f55a4df523b3ef908390a45050565b60606116d184846000856128ab565b6001600160a01b0382166125255760405162461bcd60e51b815260206004820181905260248201527f4552433732313a206d696e7420746f20746865207a65726f2061646472657373604482015260640161087c565b6000818152600260205260409020546001600160a01b03161561258a5760405162461bcd60e51b815260206004820152601c60248201527f4552433732313a20746f6b656e20616c7265616479206d696e74656400000000604482015260640161087c565b61259660008383611e28565b6001600160a01b03821660009081526003602052604081208054600192906125bf90849061307c565b909155505060008181526002602052604080822080546001600160a01b0319166001600160a01b03861690811790915590518392907fddf252ad1be2c89b69c2b068fc378daa952ba7f163c4a11628f55a4df523b3ef908290a45050565b6060816126415750506040805180820190915260018152600360fc1b602082015290565b8160005b811561266b57806126558161315c565b91506126649050600a83613094565b9150612645565b60008167ffffffffffffffff811115612686576126866131e3565b6040519080825280601f01601f1916602001820160405280156126b0576020820181803683370190505b5090505b84156116d1576126c56001836130c7565b91506126d2600a86613177565b6126dd90603061307c565b60f81b8183815181106126f2576126f26131cd565b60200101906001600160f81b031916908160001a905350612714600a86613094565b94506126b4565b6000600161272884610e26565b61273291906130c7565b600083815260086020526040902054909150808214612785576001600160a01b03841660009081526007602090815260408083208584528252808320548484528184208190558352600890915290208190555b5060009182526008602090815260408084208490556001600160a01b039094168352600781528383209183525290812055565b6009546000906127ca906001906130c7565b6000838152600a6020526040812054600980549394509092849081106127f2576127f26131cd565b906000526020600020015490508060098381548110612813576128136131cd565b6000918252602080832090910192909255828152600a9091526040808220849055858252812055600980548061284b5761284b6131b7565b6001900381819060005260206000200160009055905550505050565b600061287283610e26565b6001600160a01b039093166000908152600760209081526040808320868452825280832085905593825260089052919091209190915550565b60608247101561290c5760405162461bcd60e51b815260206004820152602660248201527f416464726573733a20696e73756666696369656e742062616c616e636520666f6044820152651c8818d85b1b60d21b606482015260840161087c565b843b61295a5760405162461bcd60e51b815260206004820152601d60248201527f416464726573733a2063616c6c20746f206e6f6e2d636f6e7472616374000000604482015260640161087c565b600080866001600160a01b031685876040516129769190612e17565b60006040518083038185875af1925050503d80600081146129b3576040519150601f19603f3d011682016040523d82523d6000602084013e6129b8565b606091505b50915091506129c88282866129d3565b979650505050505050565b606083156129e2575081611fcf565b8251156129f25782518084602001fd5b8160405162461bcd60e51b815260040161087c9190612f14565b828054612a1890613121565b90600052602060002090601f016020900481019282612a3a5760008555612a80565b82601f10612a5357805160ff1916838001178555612a80565b82800160010185558215612a80579182015b82811115612a80578251825591602001919060010190612a65565b50612a8c929150612ac6565b5090565b508054612a9c90613121565b6000825580601f10612aac575050565b601f016020900490600052602060002090810190610ccc91905b5b80821115612a8c5760008155600101612ac7565b600067ffffffffffffffff80841115612af657612af66131e3565b604051601f8501601f19908116603f01168101908282118183101715612b1e57612b1e6131e3565b81604052809350858152868686011115612b3757600080fd5b858560208301376000602087830101525050509392505050565b80356001600160a01b0381168114612b6857600080fd5b919050565b600060208284031215612b7f57600080fd5b611fcf82612b51565b60008060408385031215612b9b57600080fd5b612ba483612b51565b9150612bb260208401612b51565b90509250929050565b600080600060608486031215612bd057600080fd5b612bd984612b51565b9250612be760208501612b51565b9150604084013590509250925092565b60008060008060808587031215612c0d57600080fd5b612c1685612b51565b9350612c2460208601612b51565b925060408501359150606085013567ffffffffffffffff811115612c4757600080fd5b8501601f81018713612c5857600080fd5b612c6787823560208401612adb565b91505092959194509250565b60008060408385031215612c8657600080fd5b612c8f83612b51565b91506020830135612c9f816131f9565b809150509250929050565b60008060408385031215612cbd57600080fd5b612cc683612b51565b946020939093013593505050565b600060208284031215612ce657600080fd5b8151611fcf816131f9565b600060208284031215612d0357600080fd5b5035919050565b60008060408385031215612d1d57600080fd5b82359150612bb260208401612b51565b600060208284031215612d3f57600080fd5b8135611fcf81613207565b600060208284031215612d5c57600080fd5b8151611fcf81613207565b600060208284031215612d7957600080fd5b813567ffffffffffffffff811115612d9057600080fd5b8201601f81018413612da157600080fd5b6116d184823560208401612adb565b600060208284031215612dc257600080fd5b5051919050565b60008060408385031215612ddc57600080fd5b50508035926020909101359150565b60008151808452612e038160208601602086016130de565b601f01601f19169290920160200192915050565b60008251612e298184602087016130de565b9190910192915050565b60008351612e458184602088016130de565b835190830190612e598183602088016130de565b01949350505050565b7f416363657373436f6e74726f6c3a206163636f756e7420000000000000000000815260008351612e9a8160178501602088016130de565b7001034b99036b4b9b9b4b733903937b6329607d1b6017918401918201528351612ecb8160288401602088016130de565b01602801949350505050565b6001600160a01b0385811682528416602082015260408101839052608060608201819052600090612f0a90830184612deb565b9695505050505050565b602081526000611fcf6020830184612deb565b60208082526032908201527f4552433732313a207472616e7366657220746f206e6f6e20455243373231526560408201527131b2b4bb32b91034b6b83632b6b2b73a32b960711b606082015260800190565b60208082526010908201526f14185d5cd8589b194e881c185d5cd95960821b604082015260600190565b6020808252818101527f4f776e61626c653a2063616c6c6572206973206e6f7420746865206f776e6572604082015260600190565b60208082526033908201527f5b4c616e644e46542e6d696e745d204d7573742068617665204e616b61206d6f6040820152723932903a3430b7103630b73210383934b1b29760691b606082015260800190565b60208082526031908201527f4552433732313a207472616e736665722063616c6c6572206973206e6f74206f6040820152701ddb995c881b9bdc88185c1c1c9bdd9959607a1b606082015260800190565b6000821982111561308f5761308f61318b565b500190565b6000826130a3576130a36131a1565b500490565b60008160001904831182151516156130c2576130c261318b565b500290565b6000828210156130d9576130d961318b565b500390565b60005b838110156130f95781810151838201526020016130e1565b838111156113f25750506000910152565b6000816131195761311961318b565b506000190190565b600181811c9082168061313557607f821691505b6020821081141561315657634e487b7160e01b600052602260045260246000fd5b50919050565b60006000198214156131705761317061318b565b5060010190565b600082613186576131866131a1565b500690565b634e487b7160e01b600052601160045260246000fd5b634e487b7160e01b600052601260045260246000fd5b634e487b7160e01b600052603160045260246000fd5b634e487b7160e01b600052603260045260246000fd5b634e487b7160e01b600052604160045260246000fd5b8015158114610ccc57600080fd5b6001600160e01b031981168114610ccc57600080fdfea2646970667358221220f3a719cd4e91a52e0acf1f3e7b27250942836b29731aee57915721e843318a6464736f6c63430008070033",
  "linkReferences": {},
  "deployedLinkReferences": {}
}